{
  "contractName": "PropertyRegistry",
  "abi": [
    {
      "anonymous": false,
      "inputs": [
        {
          "indexed": false,
          "internalType": "string",
          "name": "id",
          "type": "string"
        },
        {
          "indexed": false,
          "internalType": "address",
          "name": "previousOwner",
          "type": "address"
        },
        {
          "indexed": false,
          "internalType": "address",
          "name": "newOwner",
          "type": "address"
        }
      ],
      "name": "OwnershipTransferred",
      "type": "event"
    },
    {
      "anonymous": false,
      "inputs": [
        {
          "indexed": false,
          "internalType": "string",
          "name": "id",
          "type": "string"
        },
        {
          "indexed": false,
          "internalType": "address",
          "name": "owner",
          "type": "address"
        }
      ],
      "name": "PropertyRegistered",
      "type": "event"
    },
    {
      "inputs": [
        {
          "internalType": "string",
          "name": "",
          "type": "string"
        }
      ],
      "name": "properties",
      "outputs": [
        {
          "internalType": "string",
          "name": "id",
          "type": "string"
        },
        {
          "internalType": "string",
          "name": "location",
          "type": "string"
        },
        {
          "internalType": "string",
          "name": "ownerName",
          "type": "string"
        },
        {
          "internalType": "address",
          "name": "currentOwner",
          "type": "address"
        },
        {
          "internalType": "string",
          "name": "documentHash",
          "type": "string"
        }
      ],
      "stateMutability": "view",
      "type": "function",
      "constant": true
    },
    {
      "inputs": [
        {
          "internalType": "string",
          "name": "_id",
          "type": "string"
        },
        {
          "internalType": "string",
          "name": "_location",
          "type": "string"
        },
        {
          "internalType": "string",
          "name": "_ownerName",
          "type": "string"
        },
        {
          "internalType": "string",
          "name": "_documentHash",
          "type": "string"
        }
      ],
      "name": "registerProperty",
      "outputs": [],
      "stateMutability": "nonpayable",
      "type": "function"
    },
    {
      "inputs": [
        {
          "internalType": "string",
          "name": "_id",
          "type": "string"
        },
        {
          "internalType": "string",
          "name": "_newOwnerName",
          "type": "string"
        },
        {
          "internalType": "address",
          "name": "_newOwner",
          "type": "address"
        }
      ],
      "name": "transferOwnership",
      "outputs": [],
      "stateMutability": "nonpayable",
      "type": "function"
    },
    {
      "inputs": [
        {
          "internalType": "string",
          "name": "_id",
          "type": "string"
        }
      ],
      "name": "getOwnershipHistory",
      "outputs": [
        {
          "internalType": "address[]",
          "name": "",
          "type": "address[]"
        }
      ],
      "stateMutability": "view",
      "type": "function",
      "constant": true
    }
  ],
  "bytecode": "0x608060405234801561000f575f80fd5b506112598061001d5f395ff3fe608060405234801561000f575f80fd5b5060043610610049575f3560e01c8062c966be1461004d578063122862f91461007d5780636e23de72146100995780639be8f2a6146100b5575b5f80fd5b6100676004803603810190610062919061096f565b6100e9565b6040516100749190610a9d565b60405180910390f35b61009760048036038101906100929190610ae7565b610194565b005b6100b360048036038101906100ae9190610b6f565b6103aa565b005b6100cf60048036038101906100ca919061096f565b6105a2565b6040516100e0959493929190610ccc565b60405180910390f35b60605f826040516100fa9190610d73565b908152602001604051809103902060050180548060200260200160405190810160405280929190818152602001828054801561018857602002820191905f5260205f20905b815f9054906101000a900473ffffffffffffffffffffffffffffffffffffffff1673ffffffffffffffffffffffffffffffffffffffff168152602001906001019080831161013f575b50505050509050919050565b5f80846040516101a49190610d73565b908152602001604051809103902090503373ffffffffffffffffffffffffffffffffffffffff16816003015f9054906101000a900473ffffffffffffffffffffffffffffffffffffffff1673ffffffffffffffffffffffffffffffffffffffff1614610245576040517f08c379a000000000000000000000000000000000000000000000000000000000815260040161023c90610df9565b60405180910390fd5b5f73ffffffffffffffffffffffffffffffffffffffff168273ffffffffffffffffffffffffffffffffffffffff16036102b3576040517f08c379a00000000000000000000000000000000000000000000000000000000081526004016102aa90610e61565b60405180910390fd5b8060050182908060018154018082558091505060019003905f5260205f20015f9091909190916101000a81548173ffffffffffffffffffffffffffffffffffffffff021916908373ffffffffffffffffffffffffffffffffffffffff160217905550828160020190816103269190611082565b5081816003015f6101000a81548173ffffffffffffffffffffffffffffffffffffffff021916908373ffffffffffffffffffffffffffffffffffffffff1602179055507f6840904f5b31827f74e1497360da245f56e530c8c3de3163a2d31f11493273c684338460405161039c93929190611151565b60405180910390a150505050565b5f73ffffffffffffffffffffffffffffffffffffffff165f856040516103d09190610d73565b90815260200160405180910390206003015f9054906101000a900473ffffffffffffffffffffffffffffffffffffffff1673ffffffffffffffffffffffffffffffffffffffff1614610457576040517f08c379a000000000000000000000000000000000000000000000000000000000815260040161044e906111d7565b60405180910390fd5b5f80856040516104679190610d73565b9081526020016040518091039020905084815f0190816104879190611082565b50838160010190816104999190611082565b50828160020190816104ab9190611082565b5033816003015f6101000a81548173ffffffffffffffffffffffffffffffffffffffff021916908373ffffffffffffffffffffffffffffffffffffffff160217905550818160040190816104ff9190611082565b508060050133908060018154018082558091505060019003905f5260205f20015f9091909190916101000a81548173ffffffffffffffffffffffffffffffffffffffff021916908373ffffffffffffffffffffffffffffffffffffffff1602179055507fba4092460bba778b9ffed9867d5694153585e1eaff95260f3b4b35cf7eb9c48e85336040516105939291906111f5565b60405180910390a15050505050565b5f818051602081018201805184825260208301602085012081835280955050505050505f91509050805f0180546105d890610eac565b80601f016020809104026020016040519081016040528092919081815260200182805461060490610eac565b801561064f5780601f106106265761010080835404028352916020019161064f565b820191905f5260205f20905b81548152906001019060200180831161063257829003601f168201915b50505050509080600101805461066490610eac565b80601f016020809104026020016040519081016040528092919081815260200182805461069090610eac565b80156106db5780601f106106b2576101008083540402835291602001916106db565b820191905f5260205f20905b8154815290600101906020018083116106be57829003601f168201915b5050505050908060020180546106f090610eac565b80601f016020809104026020016040519081016040528092919081815260200182805461071c90610eac565b80156107675780601f1061073e57610100808354040283529160200191610767565b820191905f5260205f20905b81548152906001019060200180831161074a57829003601f168201915b505050505090806003015f9054906101000a900473ffffffffffffffffffffffffffffffffffffffff16908060040180546107a190610eac565b80601f01602080910402602001604051908101604052809291908181526020018280546107cd90610eac565b80156108185780601f106107ef57610100808354040283529160200191610818565b820191905f5260205f20905b8154815290600101906020018083116107fb57829003601f168201915b5050505050905085565b5f604051905090565b5f80fd5b5f80fd5b5f80fd5b5f80fd5b5f601f19601f8301169050919050565b7f4e487b71000000000000000000000000000000000000000000000000000000005f52604160045260245ffd5b6108818261083b565b810181811067ffffffffffffffff821117156108a05761089f61084b565b5b80604052505050565b5f6108b2610822565b90506108be8282610878565b919050565b5f67ffffffffffffffff8211156108dd576108dc61084b565b5b6108e68261083b565b9050602081019050919050565b828183375f83830152505050565b5f61091361090e846108c3565b6108a9565b90508281526020810184848401111561092f5761092e610837565b5b61093a8482856108f3565b509392505050565b5f82601f83011261095657610955610833565b5b8135610966848260208601610901565b91505092915050565b5f602082840312156109845761098361082b565b5b5f82013567ffffffffffffffff8111156109a1576109a061082f565b5b6109ad84828501610942565b91505092915050565b5f81519050919050565b5f82825260208201905092915050565b5f819050602082019050919050565b5f73ffffffffffffffffffffffffffffffffffffffff82169050919050565b5f610a08826109df565b9050919050565b610a18816109fe565b82525050565b5f610a298383610a0f565b60208301905092915050565b5f602082019050919050565b5f610a4b826109b6565b610a5581856109c0565b9350610a60836109d0565b805f5b83811015610a90578151610a778882610a1e565b9750610a8283610a35565b925050600181019050610a63565b5085935050505092915050565b5f6020820190508181035f830152610ab58184610a41565b905092915050565b610ac6816109fe565b8114610ad0575f80fd5b50565b5f81359050610ae181610abd565b92915050565b5f805f60608486031215610afe57610afd61082b565b5b5f84013567ffffffffffffffff811115610b1b57610b1a61082f565b5b610b2786828701610942565b935050602084013567ffffffffffffffff811115610b4857610b4761082f565b5b610b5486828701610942565b9250506040610b6586828701610ad3565b9150509250925092565b5f805f8060808587031215610b8757610b8661082b565b5b5f85013567ffffffffffffffff811115610ba457610ba361082f565b5b610bb087828801610942565b945050602085013567ffffffffffffffff811115610bd157610bd061082f565b5b610bdd87828801610942565b935050604085013567ffffffffffffffff811115610bfe57610bfd61082f565b5b610c0a87828801610942565b925050606085013567ffffffffffffffff811115610c2b57610c2a61082f565b5b610c3787828801610942565b91505092959194509250565b5f81519050919050565b5f82825260208201905092915050565b5f5b83811015610c7a578082015181840152602081019050610c5f565b5f8484015250505050565b5f610c8f82610c43565b610c998185610c4d565b9350610ca9818560208601610c5d565b610cb28161083b565b840191505092915050565b610cc6816109fe565b82525050565b5f60a0820190508181035f830152610ce48188610c85565b90508181036020830152610cf88187610c85565b90508181036040830152610d0c8186610c85565b9050610d1b6060830185610cbd565b8181036080830152610d2d8184610c85565b90509695505050505050565b5f81905092915050565b5f610d4d82610c43565b610d578185610d39565b9350610d67818560208601610c5d565b80840191505092915050565b5f610d7e8284610d43565b915081905092915050565b7f4f6e6c79207468652063757272656e74206f776e65722063616e207472616e735f8201527f666572206f776e65727368697000000000000000000000000000000000000000602082015250565b5f610de3602d83610c4d565b9150610dee82610d89565b604082019050919050565b5f6020820190508181035f830152610e1081610dd7565b9050919050565b7f4e6577206f776e6572206164647265737320697320696e76616c6964000000005f82015250565b5f610e4b601c83610c4d565b9150610e5682610e17565b602082019050919050565b5f6020820190508181035f830152610e7881610e3f565b9050919050565b7f4e487b71000000000000000000000000000000000000000000000000000000005f52602260045260245ffd5b5f6002820490506001821680610ec357607f821691505b602082108103610ed657610ed5610e7f565b5b50919050565b5f819050815f5260205f209050919050565b5f6020601f8301049050919050565b5f82821b905092915050565b5f60088302610f387fffffffffffffffffffffffffffffffffffffffffffffffffffffffffffffffff82610efd565b610f428683610efd565b95508019841693508086168417925050509392505050565b5f819050919050565b5f819050919050565b5f610f86610f81610f7c84610f5a565b610f63565b610f5a565b9050919050565b5f819050919050565b610f9f83610f6c565b610fb3610fab82610f8d565b848454610f09565b825550505050565b5f90565b610fc7610fbb565b610fd2818484610f96565b505050565b5b81811015610ff557610fea5f82610fbf565b600181019050610fd8565b5050565b601f82111561103a5761100b81610edc565b61101484610eee565b81016020851015611023578190505b61103761102f85610eee565b830182610fd7565b50505b505050565b5f82821c905092915050565b5f61105a5f198460080261103f565b1980831691505092915050565b5f611072838361104b565b9150826002028217905092915050565b61108b82610c43565b67ffffffffffffffff8111156110a4576110a361084b565b5b6110ae8254610eac565b6110b9828285610ff9565b5f60209050601f8311600181146110ea575f84156110d8578287015190505b6110e28582611067565b865550611149565b601f1984166110f886610edc565b5f5b8281101561111f578489015182556001820191506020850194506020810190506110fa565b8683101561113c5784890151611138601f89168261104b565b8355505b6001600288020188555050505b505050505050565b5f6060820190508181035f8301526111698186610c85565b90506111786020830185610cbd565b6111856040830184610cbd565b949350505050565b7f50726f706572747920616c7265616479207265676973746572656400000000005f82015250565b5f6111c1601b83610c4d565b91506111cc8261118d565b602082019050919050565b5f6020820190508181035f8301526111ee816111b5565b9050919050565b5f6040820190508181035f83015261120d8185610c85565b905061121c6020830184610cbd565b939250505056fea26469706673582212206263eadfa6f5287e40ec3801b6abf0d63bae8b50e7e567c75f84e1ba188a992164736f6c63430008150033",
  "immutableReferences": {},
  "source": "// SPDX-License-Identifier: MIT\r\npragma solidity ^0.8.11;\r\n\r\ncontract PropertyRegistry {\r\n    struct Property {\r\n        string id;\r\n        string location;\r\n        string ownerName;\r\n        address currentOwner;\r\n        string documentHash;\r\n        address[] previousOwners;\r\n    }\r\n\r\n    mapping(string => Property) public properties;\r\n\r\n    event PropertyRegistered(string id, address owner);\r\n    event OwnershipTransferred(\r\n        string id,\r\n        address previousOwner,\r\n        address newOwner\r\n    );\r\n\r\n    function registerProperty(\r\n        string memory _id,\r\n        string memory _location,\r\n        string memory _ownerName,\r\n        string memory _documentHash\r\n    ) public {\r\n        require(\r\n            properties[_id].currentOwner == address(0),\r\n            \"Property already registered\"\r\n        );\r\n\r\n        Property storage newProperty = properties[_id];\r\n        newProperty.id = _id;\r\n        newProperty.location = _location;\r\n        newProperty.ownerName = _ownerName;\r\n        newProperty.currentOwner = msg.sender;\r\n        newProperty.documentHash = _documentHash;      \r\n        newProperty.previousOwners.push(msg.sender);  \r\n\r\n        emit PropertyRegistered(_id, msg.sender);\r\n    }\r\n\r\n    function transferOwnership(\r\n        string memory _id,\r\n        string memory _newOwnerName,\r\n        address _newOwner\r\n    ) public {\r\n        Property storage property = properties[_id];\r\n        require(\r\n            property.currentOwner == msg.sender,\r\n            \"Only the current owner can transfer ownership\"\r\n        );\r\n        require(_newOwner != address(0), \"New owner address is invalid\");\r\n\r\n        property.previousOwners.push(_newOwner);\r\n        property.ownerName = _newOwnerName;\r\n        property.currentOwner = _newOwner;\r\n\r\n        emit OwnershipTransferred(_id, msg.sender, _newOwner);\r\n    }\r\n\r\n    function getOwnershipHistory(\r\n        string memory _id\r\n    ) public view returns (address[] memory) {\r\n        return properties[_id].previousOwners;\r\n    }\r\n}\r\n",
  "sourcePath": "G:\\repos\\property-ownership\\property-tracker-blockchain\\contracts\\PropertyRegistry.sol",
  "compiler": {
    "name": "solc",
    "version": "0.8.21+commit.d9974bed.Emscripten.clang"
  },
  "schemaVersion": "3.4.16",
  "updatedAt": "2024-09-01T09:46:30.016Z",
  "networkType": "ethereum",
  "devdoc": {
    "kind": "dev",
    "methods": {},
    "version": 1
  },
  "userdoc": {
    "kind": "user",
    "methods": {},
    "version": 1
  }
}