{
  "contractName": "PropertyRegistry",
  "abi": [
    {
      "anonymous": false,
      "inputs": [
        {
          "indexed": false,
          "internalType": "string",
          "name": "id",
          "type": "string"
        },
        {
          "indexed": false,
          "internalType": "address",
          "name": "previousOwner",
          "type": "address"
        },
        {
          "indexed": false,
          "internalType": "address",
          "name": "newOwner",
          "type": "address"
        },
        {
          "indexed": false,
          "internalType": "uint256",
          "name": "date",
          "type": "uint256"
        }
      ],
      "name": "OwnershipTransferred",
      "type": "event"
    },
    {
      "anonymous": false,
      "inputs": [
        {
          "indexed": false,
          "internalType": "string",
          "name": "id",
          "type": "string"
        },
        {
          "indexed": false,
          "internalType": "address",
          "name": "owner",
          "type": "address"
        },
        {
          "indexed": false,
          "internalType": "uint256",
          "name": "date",
          "type": "uint256"
        }
      ],
      "name": "PropertyRegistered",
      "type": "event"
    },
    {
      "inputs": [
        {
          "internalType": "string",
          "name": "",
          "type": "string"
        }
      ],
      "name": "properties",
      "outputs": [
        {
          "internalType": "string",
          "name": "id",
          "type": "string"
        },
        {
          "internalType": "string",
          "name": "location",
          "type": "string"
        },
        {
          "internalType": "string",
          "name": "ownerName",
          "type": "string"
        },
        {
          "internalType": "address",
          "name": "currentOwner",
          "type": "address"
        },
        {
          "internalType": "string",
          "name": "documentHash",
          "type": "string"
        }
      ],
      "stateMutability": "view",
      "type": "function",
      "constant": true
    },
    {
      "inputs": [
        {
          "internalType": "string",
          "name": "_id",
          "type": "string"
        },
        {
          "internalType": "string",
          "name": "_location",
          "type": "string"
        },
        {
          "internalType": "string",
          "name": "_ownerName",
          "type": "string"
        },
        {
          "internalType": "string",
          "name": "_documentHash",
          "type": "string"
        }
      ],
      "name": "registerProperty",
      "outputs": [],
      "stateMutability": "nonpayable",
      "type": "function"
    },
    {
      "inputs": [
        {
          "internalType": "string",
          "name": "_id",
          "type": "string"
        },
        {
          "internalType": "string",
          "name": "_newOwnerName",
          "type": "string"
        },
        {
          "internalType": "address",
          "name": "_newOwner",
          "type": "address"
        }
      ],
      "name": "transferOwnership",
      "outputs": [],
      "stateMutability": "nonpayable",
      "type": "function"
    },
    {
      "inputs": [
        {
          "internalType": "string",
          "name": "_id",
          "type": "string"
        }
      ],
      "name": "getOwnershipHistory",
      "outputs": [
        {
          "internalType": "address[]",
          "name": "",
          "type": "address[]"
        },
        {
          "internalType": "uint256[]",
          "name": "",
          "type": "uint256[]"
        }
      ],
      "stateMutability": "view",
      "type": "function",
      "constant": true
    }
  ],
  "bytecode": "0x608060405234801561000f575f80fd5b506116b18061001d5f395ff3fe608060405234801561000f575f80fd5b5060043610610049575f3560e01c8062c966be1461004d578063122862f91461007e5780636e23de721461009a5780639be8f2a6146100b6575b5f80fd5b61006760048036038101906100629190610cd0565b6100ea565b604051610075929190610ebe565b60405180910390f35b61009860048036038101906100939190610f1d565b6104a1565b005b6100b460048036038101906100af9190610fa5565b6106e1565b005b6100d060048036038101906100cb9190610cd0565b610903565b6040516100e1959493929190611102565b60405180910390f35b6060805f80846040516100fd91906111a9565b90815260200160405180910390206040518060e00160405290815f82018054610125906111ec565b80601f0160208091040260200160405190810160405280929190818152602001828054610151906111ec565b801561019c5780601f106101735761010080835404028352916020019161019c565b820191905f5260205f20905b81548152906001019060200180831161017f57829003601f168201915b505050505081526020016001820180546101b5906111ec565b80601f01602080910402602001604051908101604052809291908181526020018280546101e1906111ec565b801561022c5780601f106102035761010080835404028352916020019161022c565b820191905f5260205f20905b81548152906001019060200180831161020f57829003601f168201915b50505050508152602001600282018054610245906111ec565b80601f0160208091040260200160405190810160405280929190818152602001828054610271906111ec565b80156102bc5780601f10610293576101008083540402835291602001916102bc565b820191905f5260205f20905b81548152906001019060200180831161029f57829003601f168201915b50505050508152602001600382015f9054906101000a900473ffffffffffffffffffffffffffffffffffffffff1673ffffffffffffffffffffffffffffffffffffffff1673ffffffffffffffffffffffffffffffffffffffff16815260200160048201805461032a906111ec565b80601f0160208091040260200160405190810160405280929190818152602001828054610356906111ec565b80156103a15780601f10610378576101008083540402835291602001916103a1565b820191905f5260205f20905b81548152906001019060200180831161038457829003601f168201915b505050505081526020016005820180548060200260200160405190810160405280929190818152602001828054801561042c57602002820191905f5260205f20905b815f9054906101000a900473ffffffffffffffffffffffffffffffffffffffff1673ffffffffffffffffffffffffffffffffffffffff16815260200190600101908083116103e3575b505050505081526020016006820180548060200260200160405190810160405280929190818152602001828054801561048257602002820191905f5260205f20905b81548152602001906001019080831161046e575b50505050508152505090508060a001518160c001519250925050915091565b5f80846040516104b191906111a9565b908152602001604051809103902090503373ffffffffffffffffffffffffffffffffffffffff16816003015f9054906101000a900473ffffffffffffffffffffffffffffffffffffffff1673ffffffffffffffffffffffffffffffffffffffff1614610552576040517f08c379a00000000000000000000000000000000000000000000000000000000081526004016105499061128c565b60405180910390fd5b5f73ffffffffffffffffffffffffffffffffffffffff168273ffffffffffffffffffffffffffffffffffffffff16036105c0576040517f08c379a00000000000000000000000000000000000000000000000000000000081526004016105b7906112f4565b60405180910390fd5b8060050182908060018154018082558091505060019003905f5260205f20015f9091909190916101000a81548173ffffffffffffffffffffffffffffffffffffffff021916908373ffffffffffffffffffffffffffffffffffffffff1602179055508281600201908161063391906114af565b5081816003015f6101000a81548173ffffffffffffffffffffffffffffffffffffffff021916908373ffffffffffffffffffffffffffffffffffffffff1602179055508060060142908060018154018082558091505060019003905f5260205f20015f90919091909150557fe9bf8dbaa7eb0b6910401512e60afcae7734db09df0b7291b4a16e630d796e56843384426040516106d3949392919061158d565b60405180910390a150505050565b5f73ffffffffffffffffffffffffffffffffffffffff165f8560405161070791906111a9565b90815260200160405180910390206003015f9054906101000a900473ffffffffffffffffffffffffffffffffffffffff1673ffffffffffffffffffffffffffffffffffffffff161461078e576040517f08c379a000000000000000000000000000000000000000000000000000000000815260040161078590611621565b60405180910390fd5b5f808560405161079e91906111a9565b9081526020016040518091039020905084815f0190816107be91906114af565b50838160010190816107d091906114af565b50828160020190816107e291906114af565b5033816003015f6101000a81548173ffffffffffffffffffffffffffffffffffffffff021916908373ffffffffffffffffffffffffffffffffffffffff1602179055508181600401908161083691906114af565b508060050133908060018154018082558091505060019003905f5260205f20015f9091909190916101000a81548173ffffffffffffffffffffffffffffffffffffffff021916908373ffffffffffffffffffffffffffffffffffffffff1602179055508060060142908060018154018082558091505060019003905f5260205f20015f90919091909150557f73d2fd8237105d32b68ff9c704037d5409605c2be640b8b9a11387a4ba98387c8533426040516108f49392919061163f565b60405180910390a15050505050565b5f818051602081018201805184825260208301602085012081835280955050505050505f91509050805f018054610939906111ec565b80601f0160208091040260200160405190810160405280929190818152602001828054610965906111ec565b80156109b05780601f10610987576101008083540402835291602001916109b0565b820191905f5260205f20905b81548152906001019060200180831161099357829003601f168201915b5050505050908060010180546109c5906111ec565b80601f01602080910402602001604051908101604052809291908181526020018280546109f1906111ec565b8015610a3c5780601f10610a1357610100808354040283529160200191610a3c565b820191905f5260205f20905b815481529060010190602001808311610a1f57829003601f168201915b505050505090806002018054610a51906111ec565b80601f0160208091040260200160405190810160405280929190818152602001828054610a7d906111ec565b8015610ac85780601f10610a9f57610100808354040283529160200191610ac8565b820191905f5260205f20905b815481529060010190602001808311610aab57829003601f168201915b505050505090806003015f9054906101000a900473ffffffffffffffffffffffffffffffffffffffff1690806004018054610b02906111ec565b80601f0160208091040260200160405190810160405280929190818152602001828054610b2e906111ec565b8015610b795780601f10610b5057610100808354040283529160200191610b79565b820191905f5260205f20905b815481529060010190602001808311610b5c57829003601f168201915b5050505050905085565b5f604051905090565b5f80fd5b5f80fd5b5f80fd5b5f80fd5b5f601f19601f8301169050919050565b7f4e487b71000000000000000000000000000000000000000000000000000000005f52604160045260245ffd5b610be282610b9c565b810181811067ffffffffffffffff82111715610c0157610c00610bac565b5b80604052505050565b5f610c13610b83565b9050610c1f8282610bd9565b919050565b5f67ffffffffffffffff821115610c3e57610c3d610bac565b5b610c4782610b9c565b9050602081019050919050565b828183375f83830152505050565b5f610c74610c6f84610c24565b610c0a565b905082815260208101848484011115610c9057610c8f610b98565b5b610c9b848285610c54565b509392505050565b5f82601f830112610cb757610cb6610b94565b5b8135610cc7848260208601610c62565b91505092915050565b5f60208284031215610ce557610ce4610b8c565b5b5f82013567ffffffffffffffff811115610d0257610d01610b90565b5b610d0e84828501610ca3565b91505092915050565b5f81519050919050565b5f82825260208201905092915050565b5f819050602082019050919050565b5f73ffffffffffffffffffffffffffffffffffffffff82169050919050565b5f610d6982610d40565b9050919050565b610d7981610d5f565b82525050565b5f610d8a8383610d70565b60208301905092915050565b5f602082019050919050565b5f610dac82610d17565b610db68185610d21565b9350610dc183610d31565b805f5b83811015610df1578151610dd88882610d7f565b9750610de383610d96565b925050600181019050610dc4565b5085935050505092915050565b5f81519050919050565b5f82825260208201905092915050565b5f819050602082019050919050565b5f819050919050565b610e3981610e27565b82525050565b5f610e4a8383610e30565b60208301905092915050565b5f602082019050919050565b5f610e6c82610dfe565b610e768185610e08565b9350610e8183610e18565b805f5b83811015610eb1578151610e988882610e3f565b9750610ea383610e56565b925050600181019050610e84565b5085935050505092915050565b5f6040820190508181035f830152610ed68185610da2565b90508181036020830152610eea8184610e62565b90509392505050565b610efc81610d5f565b8114610f06575f80fd5b50565b5f81359050610f1781610ef3565b92915050565b5f805f60608486031215610f3457610f33610b8c565b5b5f84013567ffffffffffffffff811115610f5157610f50610b90565b5b610f5d86828701610ca3565b935050602084013567ffffffffffffffff811115610f7e57610f7d610b90565b5b610f8a86828701610ca3565b9250506040610f9b86828701610f09565b9150509250925092565b5f805f8060808587031215610fbd57610fbc610b8c565b5b5f85013567ffffffffffffffff811115610fda57610fd9610b90565b5b610fe687828801610ca3565b945050602085013567ffffffffffffffff81111561100757611006610b90565b5b61101387828801610ca3565b935050604085013567ffffffffffffffff81111561103457611033610b90565b5b61104087828801610ca3565b925050606085013567ffffffffffffffff81111561106157611060610b90565b5b61106d87828801610ca3565b91505092959194509250565b5f81519050919050565b5f82825260208201905092915050565b5f5b838110156110b0578082015181840152602081019050611095565b5f8484015250505050565b5f6110c582611079565b6110cf8185611083565b93506110df818560208601611093565b6110e881610b9c565b840191505092915050565b6110fc81610d5f565b82525050565b5f60a0820190508181035f83015261111a81886110bb565b9050818103602083015261112e81876110bb565b9050818103604083015261114281866110bb565b905061115160608301856110f3565b818103608083015261116381846110bb565b90509695505050505050565b5f81905092915050565b5f61118382611079565b61118d818561116f565b935061119d818560208601611093565b80840191505092915050565b5f6111b48284611179565b915081905092915050565b7f4e487b71000000000000000000000000000000000000000000000000000000005f52602260045260245ffd5b5f600282049050600182168061120357607f821691505b602082108103611216576112156111bf565b5b50919050565b7f4f6e6c79207468652063757272656e74206f776e65722063616e207472616e735f8201527f666572206f776e65727368697000000000000000000000000000000000000000602082015250565b5f611276602d83611083565b91506112818261121c565b604082019050919050565b5f6020820190508181035f8301526112a38161126a565b9050919050565b7f4e6577206f776e6572206164647265737320697320696e76616c6964000000005f82015250565b5f6112de601c83611083565b91506112e9826112aa565b602082019050919050565b5f6020820190508181035f83015261130b816112d2565b9050919050565b5f819050815f5260205f209050919050565b5f6020601f8301049050919050565b5f82821b905092915050565b5f6008830261136e7fffffffffffffffffffffffffffffffffffffffffffffffffffffffffffffffff82611333565b6113788683611333565b95508019841693508086168417925050509392505050565b5f819050919050565b5f6113b36113ae6113a984610e27565b611390565b610e27565b9050919050565b5f819050919050565b6113cc83611399565b6113e06113d8826113ba565b84845461133f565b825550505050565b5f90565b6113f46113e8565b6113ff8184846113c3565b505050565b5b81811015611422576114175f826113ec565b600181019050611405565b5050565b601f8211156114675761143881611312565b61144184611324565b81016020851015611450578190505b61146461145c85611324565b830182611404565b50505b505050565b5f82821c905092915050565b5f6114875f198460080261146c565b1980831691505092915050565b5f61149f8383611478565b9150826002028217905092915050565b6114b882611079565b67ffffffffffffffff8111156114d1576114d0610bac565b5b6114db82546111ec565b6114e6828285611426565b5f60209050601f831160018114611517575f8415611505578287015190505b61150f8582611494565b865550611576565b601f19841661152586611312565b5f5b8281101561154c57848901518255600182019150602085019450602081019050611527565b868310156115695784890151611565601f891682611478565b8355505b6001600288020188555050505b505050505050565b61158781610e27565b82525050565b5f6080820190508181035f8301526115a581876110bb565b90506115b460208301866110f3565b6115c160408301856110f3565b6115ce606083018461157e565b95945050505050565b7f50726f706572747920616c7265616479207265676973746572656400000000005f82015250565b5f61160b601b83611083565b9150611616826115d7565b602082019050919050565b5f6020820190508181035f830152611638816115ff565b9050919050565b5f6060820190508181035f83015261165781866110bb565b905061166660208301856110f3565b611673604083018461157e565b94935050505056fea2646970667358221220fa3bf4657b63d163e53bd195e0618e65fa91f27df9f7414696f6d493bac4456f64736f6c63430008150033",
  "immutableReferences": {},
  "source": "// SPDX-License-Identifier: MIT\r\npragma solidity ^0.8.11;\r\n\r\ncontract PropertyRegistry {\r\n    struct Property {\r\n        string id;\r\n        string location;\r\n        string ownerName;\r\n        address currentOwner;\r\n        string documentHash;\r\n        address[] previousOwners;\r\n        uint[] transactionDates;\r\n    }\r\n\r\n    mapping(string => Property) public properties;\r\n\r\n    event PropertyRegistered(string id, address owner, uint256 date);\r\n    event OwnershipTransferred(\r\n        string id,\r\n        address previousOwner,\r\n        address newOwner,\r\n        uint256 date\r\n    );\r\n\r\n    function registerProperty(\r\n        string memory _id,\r\n        string memory _location,\r\n        string memory _ownerName,\r\n        string memory _documentHash\r\n    ) public {\r\n        require(\r\n            properties[_id].currentOwner == address(0),\r\n            \"Property already registered\"\r\n        );\r\n\r\n        Property storage newProperty = properties[_id];\r\n        newProperty.id = _id;\r\n        newProperty.location = _location;\r\n        newProperty.ownerName = _ownerName;\r\n        newProperty.currentOwner = msg.sender;\r\n        newProperty.documentHash = _documentHash;\r\n        newProperty.previousOwners.push(msg.sender);\r\n        newProperty.transactionDates.push(block.timestamp);\r\n\r\n        emit PropertyRegistered(_id, msg.sender, block.timestamp);\r\n    }\r\n\r\n    function transferOwnership(\r\n        string memory _id,\r\n        string memory _newOwnerName,\r\n        address _newOwner\r\n    ) public {\r\n        Property storage property = properties[_id];\r\n        require(\r\n            property.currentOwner == msg.sender,\r\n            \"Only the current owner can transfer ownership\"\r\n        );\r\n        require(_newOwner != address(0), \"New owner address is invalid\");\r\n\r\n        property.previousOwners.push(_newOwner);\r\n        property.ownerName = _newOwnerName;\r\n        property.currentOwner = _newOwner;\r\n        property.transactionDates.push(block.timestamp);\r\n\r\n        emit OwnershipTransferred(_id, msg.sender, _newOwner, block.timestamp);\r\n    }\r\n\r\n    function getOwnershipHistory(\r\n        string memory _id\r\n    ) public view returns (address[] memory, uint[] memory) {\r\n        Property memory property = properties[_id];\r\n        return (property.previousOwners, property.transactionDates);\r\n    }\r\n}\r\n",
  "sourcePath": "G:\\repos\\property-ownership\\property-tracker-blockchain\\contracts\\PropertyRegistry.sol",
  "compiler": {
    "name": "solc",
    "version": "0.8.21+commit.d9974bed.Emscripten.clang"
  },
  "schemaVersion": "3.4.16",
  "updatedAt": "2024-09-05T09:05:11.578Z",
  "networkType": "ethereum",
  "devdoc": {
    "kind": "dev",
    "methods": {},
    "version": 1
  },
  "userdoc": {
    "kind": "user",
    "methods": {},
    "version": 1
  }
}