{
  "contractName": "PropertyRegistry",
  "abi": [
    {
      "anonymous": false,
      "inputs": [
        {
          "indexed": false,
          "internalType": "string",
          "name": "id",
          "type": "string"
        },
        {
          "indexed": false,
          "internalType": "address",
          "name": "previousOwner",
          "type": "address"
        },
        {
          "indexed": false,
          "internalType": "address",
          "name": "newOwner",
          "type": "address"
        }
      ],
      "name": "OwnershipTransferred",
      "type": "event"
    },
    {
      "anonymous": false,
      "inputs": [
        {
          "indexed": false,
          "internalType": "string",
          "name": "id",
          "type": "string"
        },
        {
          "indexed": false,
          "internalType": "address",
          "name": "owner",
          "type": "address"
        }
      ],
      "name": "PropertyRegistered",
      "type": "event"
    },
    {
      "inputs": [
        {
          "internalType": "string",
          "name": "",
          "type": "string"
        }
      ],
      "name": "properties",
      "outputs": [
        {
          "internalType": "string",
          "name": "id",
          "type": "string"
        },
        {
          "internalType": "string",
          "name": "location",
          "type": "string"
        },
        {
          "internalType": "address",
          "name": "currentOwner",
          "type": "address"
        },
        {
          "internalType": "string",
          "name": "documentHash",
          "type": "string"
        }
      ],
      "stateMutability": "view",
      "type": "function",
      "constant": true
    },
    {
      "inputs": [
        {
          "internalType": "string",
          "name": "_id",
          "type": "string"
        },
        {
          "internalType": "string",
          "name": "_location",
          "type": "string"
        },
        {
          "internalType": "string",
          "name": "_documentHash",
          "type": "string"
        }
      ],
      "name": "registerProperty",
      "outputs": [],
      "stateMutability": "nonpayable",
      "type": "function"
    },
    {
      "inputs": [
        {
          "internalType": "string",
          "name": "_id",
          "type": "string"
        },
        {
          "internalType": "address",
          "name": "_newOwner",
          "type": "address"
        }
      ],
      "name": "transferOwnership",
      "outputs": [],
      "stateMutability": "nonpayable",
      "type": "function"
    },
    {
      "inputs": [
        {
          "internalType": "string",
          "name": "_id",
          "type": "string"
        }
      ],
      "name": "getOwnershipHistory",
      "outputs": [
        {
          "internalType": "address[]",
          "name": "",
          "type": "address[]"
        }
      ],
      "stateMutability": "view",
      "type": "function",
      "constant": true
    }
  ],
  "bytecode": "0x608060405234801561000f575f80fd5b506111568061001d5f395ff3fe608060405234801561000f575f80fd5b5060043610610049575f3560e01c8062c966be1461004d5780639be8f2a61461007d578063c0e793c2146100b0578063f6eaad73146100cc575b5f80fd5b610067600480360381019061006291906108df565b6100e8565b6040516100749190610a0d565b60405180910390f35b610097600480360381019061009291906108df565b610193565b6040516100a79493929190610ab6565b60405180910390f35b6100ca60048036038101906100c59190610b38565b610387565b005b6100e660048036038101906100e19190610b92565b6105ad565b005b60605f826040516100f99190610c70565b908152602001604051809103902060040180548060200260200160405190810160405280929190818152602001828054801561018757602002820191905f5260205f20905b815f9054906101000a900473ffffffffffffffffffffffffffffffffffffffff1673ffffffffffffffffffffffffffffffffffffffff168152602001906001019080831161013e575b50505050509050919050565b5f818051602081018201805184825260208301602085012081835280955050505050505f91509050805f0180546101c990610cb3565b80601f01602080910402602001604051908101604052809291908181526020018280546101f590610cb3565b80156102405780601f1061021757610100808354040283529160200191610240565b820191905f5260205f20905b81548152906001019060200180831161022357829003601f168201915b50505050509080600101805461025590610cb3565b80601f016020809104026020016040519081016040528092919081815260200182805461028190610cb3565b80156102cc5780601f106102a3576101008083540402835291602001916102cc565b820191905f5260205f20905b8154815290600101906020018083116102af57829003601f168201915b505050505090806002015f9054906101000a900473ffffffffffffffffffffffffffffffffffffffff169080600301805461030690610cb3565b80601f016020809104026020016040519081016040528092919081815260200182805461033290610cb3565b801561037d5780601f106103545761010080835404028352916020019161037d565b820191905f5260205f20905b81548152906001019060200180831161036057829003601f168201915b5050505050905084565b5f80836040516103979190610c70565b908152602001604051809103902090503373ffffffffffffffffffffffffffffffffffffffff16816002015f9054906101000a900473ffffffffffffffffffffffffffffffffffffffff1673ffffffffffffffffffffffffffffffffffffffff1614610438576040517f08c379a000000000000000000000000000000000000000000000000000000000815260040161042f90610d53565b60405180910390fd5b5f73ffffffffffffffffffffffffffffffffffffffff168273ffffffffffffffffffffffffffffffffffffffff16036104a6576040517f08c379a000000000000000000000000000000000000000000000000000000000815260040161049d90610dbb565b60405180910390fd5b80600401816002015f9054906101000a900473ffffffffffffffffffffffffffffffffffffffff16908060018154018082558091505060019003905f5260205f20015f9091909190916101000a81548173ffffffffffffffffffffffffffffffffffffffff021916908373ffffffffffffffffffffffffffffffffffffffff16021790555081816002015f6101000a81548173ffffffffffffffffffffffffffffffffffffffff021916908373ffffffffffffffffffffffffffffffffffffffff1602179055507f6840904f5b31827f74e1497360da245f56e530c8c3de3163a2d31f11493273c68333846040516105a093929190610dd9565b60405180910390a1505050565b5f73ffffffffffffffffffffffffffffffffffffffff165f846040516105d39190610c70565b90815260200160405180910390206002015f9054906101000a900473ffffffffffffffffffffffffffffffffffffffff1673ffffffffffffffffffffffffffffffffffffffff161461065a576040517f08c379a000000000000000000000000000000000000000000000000000000000815260040161065190610e5f565b60405180910390fd5b5f808460405161066a9190610c70565b9081526020016040518091039020905083815f01908161068a9190611023565b508281600101908161069c9190611023565b5033816002015f6101000a81548173ffffffffffffffffffffffffffffffffffffffff021916908373ffffffffffffffffffffffffffffffffffffffff160217905550818160030190816106f09190611023565b508060040133908060018154018082558091505060019003905f5260205f20015f9091909190916101000a81548173ffffffffffffffffffffffffffffffffffffffff021916908373ffffffffffffffffffffffffffffffffffffffff1602179055507fba4092460bba778b9ffed9867d5694153585e1eaff95260f3b4b35cf7eb9c48e84336040516107849291906110f2565b60405180910390a150505050565b5f604051905090565b5f80fd5b5f80fd5b5f80fd5b5f80fd5b5f601f19601f8301169050919050565b7f4e487b71000000000000000000000000000000000000000000000000000000005f52604160045260245ffd5b6107f1826107ab565b810181811067ffffffffffffffff821117156108105761080f6107bb565b5b80604052505050565b5f610822610792565b905061082e82826107e8565b919050565b5f67ffffffffffffffff82111561084d5761084c6107bb565b5b610856826107ab565b9050602081019050919050565b828183375f83830152505050565b5f61088361087e84610833565b610819565b90508281526020810184848401111561089f5761089e6107a7565b5b6108aa848285610863565b509392505050565b5f82601f8301126108c6576108c56107a3565b5b81356108d6848260208601610871565b91505092915050565b5f602082840312156108f4576108f361079b565b5b5f82013567ffffffffffffffff8111156109115761091061079f565b5b61091d848285016108b2565b91505092915050565b5f81519050919050565b5f82825260208201905092915050565b5f819050602082019050919050565b5f73ffffffffffffffffffffffffffffffffffffffff82169050919050565b5f6109788261094f565b9050919050565b6109888161096e565b82525050565b5f610999838361097f565b60208301905092915050565b5f602082019050919050565b5f6109bb82610926565b6109c58185610930565b93506109d083610940565b805f5b83811015610a005781516109e7888261098e565b97506109f2836109a5565b9250506001810190506109d3565b5085935050505092915050565b5f6020820190508181035f830152610a2581846109b1565b905092915050565b5f81519050919050565b5f82825260208201905092915050565b5f5b83811015610a64578082015181840152602081019050610a49565b5f8484015250505050565b5f610a7982610a2d565b610a838185610a37565b9350610a93818560208601610a47565b610a9c816107ab565b840191505092915050565b610ab08161096e565b82525050565b5f6080820190508181035f830152610ace8187610a6f565b90508181036020830152610ae28186610a6f565b9050610af16040830185610aa7565b8181036060830152610b038184610a6f565b905095945050505050565b610b178161096e565b8114610b21575f80fd5b50565b5f81359050610b3281610b0e565b92915050565b5f8060408385031215610b4e57610b4d61079b565b5b5f83013567ffffffffffffffff811115610b6b57610b6a61079f565b5b610b77858286016108b2565b9250506020610b8885828601610b24565b9150509250929050565b5f805f60608486031215610ba957610ba861079b565b5b5f84013567ffffffffffffffff811115610bc657610bc561079f565b5b610bd2868287016108b2565b935050602084013567ffffffffffffffff811115610bf357610bf261079f565b5b610bff868287016108b2565b925050604084013567ffffffffffffffff811115610c2057610c1f61079f565b5b610c2c868287016108b2565b9150509250925092565b5f81905092915050565b5f610c4a82610a2d565b610c548185610c36565b9350610c64818560208601610a47565b80840191505092915050565b5f610c7b8284610c40565b915081905092915050565b7f4e487b71000000000000000000000000000000000000000000000000000000005f52602260045260245ffd5b5f6002820490506001821680610cca57607f821691505b602082108103610cdd57610cdc610c86565b5b50919050565b7f4f6e6c79207468652063757272656e74206f776e65722063616e207472616e735f8201527f666572206f776e65727368697000000000000000000000000000000000000000602082015250565b5f610d3d602d83610a37565b9150610d4882610ce3565b604082019050919050565b5f6020820190508181035f830152610d6a81610d31565b9050919050565b7f4e6577206f776e6572206164647265737320697320696e76616c6964000000005f82015250565b5f610da5601c83610a37565b9150610db082610d71565b602082019050919050565b5f6020820190508181035f830152610dd281610d99565b9050919050565b5f6060820190508181035f830152610df18186610a6f565b9050610e006020830185610aa7565b610e0d6040830184610aa7565b949350505050565b7f50726f706572747920616c7265616479207265676973746572656400000000005f82015250565b5f610e49601b83610a37565b9150610e5482610e15565b602082019050919050565b5f6020820190508181035f830152610e7681610e3d565b9050919050565b5f819050815f5260205f209050919050565b5f6020601f8301049050919050565b5f82821b905092915050565b5f60088302610ed97fffffffffffffffffffffffffffffffffffffffffffffffffffffffffffffffff82610e9e565b610ee38683610e9e565b95508019841693508086168417925050509392505050565b5f819050919050565b5f819050919050565b5f610f27610f22610f1d84610efb565b610f04565b610efb565b9050919050565b5f819050919050565b610f4083610f0d565b610f54610f4c82610f2e565b848454610eaa565b825550505050565b5f90565b610f68610f5c565b610f73818484610f37565b505050565b5b81811015610f9657610f8b5f82610f60565b600181019050610f79565b5050565b601f821115610fdb57610fac81610e7d565b610fb584610e8f565b81016020851015610fc4578190505b610fd8610fd085610e8f565b830182610f78565b50505b505050565b5f82821c905092915050565b5f610ffb5f1984600802610fe0565b1980831691505092915050565b5f6110138383610fec565b9150826002028217905092915050565b61102c82610a2d565b67ffffffffffffffff811115611045576110446107bb565b5b61104f8254610cb3565b61105a828285610f9a565b5f60209050601f83116001811461108b575f8415611079578287015190505b6110838582611008565b8655506110ea565b601f19841661109986610e7d565b5f5b828110156110c05784890151825560018201915060208501945060208101905061109b565b868310156110dd57848901516110d9601f891682610fec565b8355505b6001600288020188555050505b505050505050565b5f6040820190508181035f83015261110a8185610a6f565b90506111196020830184610aa7565b939250505056fea2646970667358221220bf8632ce8a371efa0a99c404fe79c4a041d293838088c6b9f666431ed432585b64736f6c63430008150033",
  "immutableReferences": {},
  "source": "// SPDX-License-Identifier: MIT\r\npragma solidity ^0.8.11;\r\n\r\ncontract PropertyRegistry {\r\n    struct Property {\r\n        string id;\r\n        string location;\r\n        address currentOwner;\r\n        string documentHash;\r\n        address[] previousOwners;\r\n    }\r\n\r\n    mapping(string => Property) public properties;\r\n\r\n    event PropertyRegistered(string id, address owner);\r\n    event OwnershipTransferred(\r\n        string id,\r\n        address previousOwner,\r\n        address newOwner\r\n    );\r\n\r\n    function registerProperty(\r\n        string memory _id,\r\n        string memory _location,\r\n        string memory _documentHash\r\n    ) public {\r\n        require(\r\n            properties[_id].currentOwner == address(0),\r\n            \"Property already registered\"\r\n        );\r\n\r\n        Property storage newProperty = properties[_id];\r\n        newProperty.id = _id;\r\n        newProperty.location = _location;\r\n        newProperty.currentOwner = msg.sender;\r\n        newProperty.documentHash = _documentHash;\r\n        newProperty.previousOwners.push(msg.sender);\r\n\r\n        emit PropertyRegistered(_id, msg.sender);\r\n    }\r\n\r\n    function transferOwnership(string memory _id, address _newOwner) public {\r\n        Property storage property = properties[_id];\r\n        require(\r\n            property.currentOwner == msg.sender,\r\n            \"Only the current owner can transfer ownership\"\r\n        );\r\n        require(_newOwner != address(0), \"New owner address is invalid\");\r\n\r\n        property.previousOwners.push(property.currentOwner);\r\n        property.currentOwner = _newOwner;\r\n\r\n        emit OwnershipTransferred(_id, msg.sender, _newOwner);\r\n    }\r\n\r\n    function getOwnershipHistory(\r\n        string memory _id\r\n    ) public view returns (address[] memory) {\r\n        return properties[_id].previousOwners;\r\n    }\r\n}\r\n",
  "sourcePath": "G:\\repos\\property-ownership\\property-tracker-blockchain\\contracts\\PropertyRegistry.sol",
  "compiler": {
    "name": "solc",
    "version": "0.8.21+commit.d9974bed.Emscripten.clang"
  },
  "schemaVersion": "3.4.16",
  "updatedAt": "2024-08-29T17:50:41.176Z",
  "networkType": "ethereum",
  "devdoc": {
    "kind": "dev",
    "methods": {},
    "version": 1
  },
  "userdoc": {
    "kind": "user",
    "methods": {},
    "version": 1
  }
}